:10099B00543A0054483A00544C3A004F563A4800E7
:0A09AB004F563A4C00202020200097
:10046200E4FF12080E8F117F0112080E8F08AF11E0
:10047200EF3395E0FED3EF947DEE64809480501FBD
:10048200AF08EF3395E0FEC3EF94C9EE6480947F2A
:10049200400DD3E5086480F8E51164809850067534
:1004A200111475080F1209F87BFF7A09799B7D01F7
:1004B2007F011208FD7BFF7A09799E7D017F02127E
:1004C20008FD7BFF7A0979A27D097F02020662128A
:1004D20006788F12120A1B12083E8F108E0F8D0E95
:1004E2008C0D8F0C8E0B8D0A8C09E4FFFEFDFCAB8C
:1004F20010AA0FA90EA80D1201A9501E7B2D7D0373
:100502007F01120A4AAF10AE0FAD0EAC0D120222DD
:100512008F108E0F8D0E8C0D80097B2B7D037F013A
:10052200120A4AAF10AE0FAD0EAC0D120271AB073C
:10053200AA067517037D047F011208B57B2E7D077D
:100542007F01120A4AE4FFFE7DC87C42AB10AA0F6B
:10055200A90EA80D120003120271E47B64FAF9F8E5
:100562001203C27517027D087F011208B5E51260F9
:1005720069FF7E00640170170511AD11ED3395E03E
:10058200FCD3ED947DEC64809480400375117DEF83
:1005920064024E70111511D3E5086480F8E5116408
:1005A200809850020511E512640370110508D3E525
:1005B200086480F8E51164809850021508E5126419
:1005C2000470171508AF11EF3395E0FEC3EF94C91D
:1005D200EE6480947F50037511C9E511FB3395E0F9
:1005E200FA7517037D047F02120724E508FB339591
:1005F200E0FA7517037D0C7F02120724E511FD3323
:1006020095E0FCE4FF1208D97F057E001209E4E5BB
:1006120008FD3395E0FC7F011208D97F057E0012A8
:1006220009E4AC11EC12023DAB0CAA0BA90AA80911
:100632001201A9600E400C7BFF7A0979A67D0D7F1D
:1006420001801DAC08EC12023DAB0CAA0BA90AA852
:10065200091201A950107BFF7A0979AB7D0D7F0148
:100662001208FD0204D17BFF7A0979B07D0D7F016A
:060672001208FD0204D194
:1009E400EF4E600F7D027CEFDCFEDDFCEF1F70F04C
:0309F4001E80ED75
:0109F70022DD
:0D0A1B0012097E7FCC1209207F44020920C1
:10083E0012097E7FCC1209207FBE12092012086990
:10084E008F13120869EFFEE513FFFDAC06EC1202E2
:0B085E0038E4FBFA7980784102010CBD
:060A0C00C2A58F80D2A7F5
:080A12007F027EEFDEFEDFFC37
:010A1A0022B9
:0A0A4000C2A6120A0CC2A7020A1295
:10094200CFCDCFCECCCE1203317C007D0A12033143
:04095200ED2430FF61
:0A095600D2A6120A0CC2A7020A1270
:10096000AE07EEFB7A0064017004ED148009EB64BD
:0E097000024A7009ED243F4480FF120A402223
:1009F8007F38120A407F0C120A407F06120A407F95
:040A080001020A409D
:0A0A4A00AC03120960AF0402095664
:0608FD008B138A1489151B
:10090300120960E4FDAB13AA14A9158D8275830047
:0C0913001202F2FF60061209560D80E986
:01091F0022B5
:0A07DD00EF24FFFDEE34FFFC7F0A5D
:0807E7008E1A8F1B8C1C8D1D66
:1007EF007F017E00E4FBEBC3951DE51C6480F8746C
:0E07FF008098500AAC1AAD1B12031F0B80E845
:01080D0022C8
:0408B5008A158B16FF
:1008B900120960AA17EAFF7E00D39400748094801D
:0F08C900400D1207DDAC15AD161209421A80E67C
:0108D80022FD
:040724008B828A83B7
:10072800120960C3E58364809480400D7F2B120911
:100738005685831885821980107F2D120956C3E4C7
:100748009582F519E49583F518AA17EAFF7E00D378
:10075800940074809480400D1207DDAC18AD191216
:0507680009421A80E6C1
:01076D002269
:0406D9008A208B21C7
:1006DD00120960AA22EAD39400748094804037EA0C
:1006ED0024FFFDE434FFFC7F107E001207E7AC20F1
:1006FD00AD21CFCDCFCECCCE120331EF540FFEC3F3
:10070D00940A74809480EE5004243080022437FFC4
:06071D001209561A80BF0C
:0107230022B3
:04076E008A258B2627
:10077200120960AA27EAFF7E00D394007480948055
:100782004026EF24FFFDEE34FFFC7F021207E7ACA8
:1007920025AD26CFCDCFCECCCE120331EF540124DE
:0807A20030FF1209561A80CD48
:0107AA00222C
:10097E00D2B7C2B7007FCCDFFED2B7007F1DDFFE3D
:0C098E00A2B7E433FE007FCCDFFEAF0612
:01099A00223A
:1009CF00D2B7C2B7007E03DEFEEF24FF92B77E16CA
:0409DF00DEFED2B7AF
:0109E30022F1
:1009B500C2B7007F02DFFED2B7007F02DFFEA2B71B
:0909C500E433FE7F16DFFEAF06ED
:0109CE002206
:02092000AD0721
:10092200E4FCECC39408748094805013A80474010E
:0F093200088002C333D8FC5DFF1209CF0C80E3AD
:010941002293
:10086900E4FDFCECC394087480948050161209B519
:10087900EF600DA8047401088002C333D8FC420557
:050889000C80E0AF054A
:01088E002247
:1008D9008F138C148D15120A5E7FA01207AB120AB2
:1008E90028AF131207AB120A28AF151207AB120A69
:0408F90028020A6760
:02080E008F1346
:10081000120A5E7FA01207AB120A28AF131207ABB1
:10082000120A28120A5E7FA11207AB120A281208C8
:0D0830008F8F147F01120A54120A67AF1453
:01083D002298
:090A5E00D2A0D2A1C2A0C2A122C3
:070A6700C2A0D2A1D2A0221F
:0207AB00AD0798
:1007AD00E4FBEBC394087480948050237E00748026
:1007BD00A803088006CEA2E713CE13D8F8FFEDF5F7
:0F07CD0082EF558224FF92A0D2A1C2A10B80D34C
:0107DC0022FA
:10088F00D2A0E4FEEEC39408748094805017D2A1D6
:10089F0030A00DA8067480088002C313D8FC42074D
:0508AF00C2A10E80DF74
:0108B4002221
:0A0A5400EF24FF92A0D2A1C2A1225C
:0B0A2800D2A0D2A1A2A0E433FFC2A123
:010A330022A0
:10067800E4F51320B1137F14FE1209E430B1FD7FB5
:10068800147E001209E475130120B0147F147E0053
:100698001209E430B0FD7F147E001209E4751302DC
:1006A80020B2147F147E001209E430B2FD7F147E5C
:1006B800001209E475130320B3147F147E00120995
:1006C800E430B3FD7F147E001209E4751304AF1300
:0106D80022FF
:10000300EC4D6011E8497017ED33EC3304600DE4F7
:10001300FCFFFEFD22E933E8330470F80202DD122F
:1000230002A858046009E4CC248150062850090230
:1000330002E72840030202E4C0E0EB4A7044B980BF
:1000430006D0E0FB0202D3EF4E701CBD8008EBFF2D
:10005300EAFEE9FD80EBE98DF0A4FEE5F00200EC99
:10006300E9CDF9EAFEEBFFEF89F0A4FCE5F0CE89D8
:10007300F0A42EFFE435F0CD89F0A42DFEE435F095
:100083008067EF4E7005BD80D780C3EF8BF0A4ACC3
:10009300F0EE8BF0A42CFCE435F0F8EF8AF0A42CFE
:1000A300E5F038FCE433CB8DF0A42CFCE5F03BF811
:1000B300EE8AF0A42CFCE5F038F8E433CF89F0A401
:1000C3002CFCE5F038CF3400CE89F0A42FFFE5F007
:1000D3003EFEE433C98DF0A42EFEE5F039CD8AF05F
:1000E300A42FFFE5F03EFEE43DFD33D0E0FB5007D7
:1000F3000BBB000F0202E7EC2CFCEF33FFEE33FEE9
:06010300ED33FD0202BF16
:100109000202E7EC5D046005E8590470030202DDB0
:100119001202A8580460F6EC4860F2EC7004FDFE87
:10012900FF22C860DB2481C85009C39860025006C9
:100139000202E49850CAF582E9294B4A7005AB825C
:100149000202D375F0007C1A7880C3EF9BEE9AED1A
:1001590099400DC3EF9BFFEE9AFEED99FDE842F041
:10016900DC23ACF0D0E0FFD0E0FED0E0FDAB822094
:10017900E7101BEB60BAEC2CFCEF33FFEE33FEED1E
:1001890033FD0202BFE803F830E705C0F075F0005F
:10019900EF2FFFEE33FEED33FD40B830E7C280AA02
:1001A90074F8CC6480CCC86480C8F58204604FC3FD
:1001B900EB9FF5F0EA9E42F0E99D42F0E89C45F09C
:1001C900603C501DE5825FFFE582D313CB5BCBF426
:1001D9002B5582FB50280ABA002409B9002008804F
:1001E9001DE5825BFBE582D313CF5FCFF4C3132FE9
:1001F9005582FF50090EBE00050DBD00010CC3EB71
:100209009FF5F0EA9E42F0E99D42F0E89C45F060D6
:0902190007CC4820E701B3EC22F8
:10022200ED33EC33600A047003BD8004ECB2E7FCEA
:0102320022A9
:1002330075F020800E75F010800575F0087D007E46
:10024300007F003392D530D503120454EC334010B1
:10025300EF33FFEE33FEED33FDEC33FCD5F0ED224F
:0E026300E5F0247EA2D513CC92E7CDCEFF228B
:10027100EDD2E7CD33EC3392D524814006E4FFFE85
:10028100FDFC22FCE4CFCECDCC24E0501174FF80E4
:10029100EDC3CC13CCCD13CDCE13CECF13CF047081
:0702A100F030D5DE02045429
:1002A800E9D2E7C933E833F892D5EDD2E7CD33EC9C
:0702B80033FC5002B2D52215
:1002BF00EC30E7100FBF000C0EBE00080DBD0004A0
:1002CF000BEB6014A2D5EB13FCED92E7FD2274FF4C
:1002DF00FCFDFEFF22E480F8A2D574FF13FC7D80A5
:0302EF00E480EFB9
:03000000020A34BD
:0C0A3400787FE4F6D8FD7581270204628B
:1002F200BB010CE58229F582E5833AF583E02250C1
:1003020006E92582F8E622BBFE06E92582F8E2220A
:0D031200E58229F582E5833AF583E4932224
:10031F00EF8DF0A4A8F0CF8CF0A428CE8DF0A42EF2
:02032F00FE22AC
:10033100BC000BBE0029EF8DF084FFADF022E4CCB0
:10034100F875F008EF2FFFEE33FEEC33FCEE9DEC79
:10035100984005FCEE9DFE0FD5F0E9E4CEFD22EDBF
:10036100F8F5F0EE8420D21CFEADF075F008EF2F09
:10037100FFED33FD4007985006D5F0F222C398FDFA
:050381000FD5F0EA2297
:1003860075F008758200EF2FFFEE33FECD33CDCC2E
:1003960033CCC58233C5829BED9AEC99E5829840B1
:1003A6000CF582EE9BFEED9AFDEC99FC0FD5F0D68E
:1003B600E4CEFBE4CDFAE4CCF9A88222B800C1B9B8
:1003C6000059BA002DEC8BF084CFCECDFCE5F0CBF6
:1003D600F97818EF2FFFEE33FEED33FDEC33FCEB2F
:1003E60033FB10D703994004EB99FB0FD8E5E4F9EA
:1003F600FA227818EF2FFFEE33FEED33FDEC33FCD7
:10040600C933C910D7059BE99A4007EC9BFCE99ACA
:10041600F90FD8E0E4C9FAE4CCFB2275F010EF2F0F
:10042600FFEE33FEED33FDCC33CCC833C810D7070F
:100436009BEC9AE899400AED9BFDEC9AFCE899F84A
:0E0446000FD5F0DAE4CDFBE4CCFAE4C8F922DD
:0E045400C3E49FFFE49EFEE49DFDE49CFC22B9
:00000001FF
