:10048D0050617373576F72643A004F4B20004552A1
:02049D0052000B
:10018C001204797BFF7A04798D7D017F01120406BC
:10019C001200038F1CEF60F8D3940A748094805083
:1001AC0040C3E5199404E51894005035AE1AAF1B02
:1001BC007C007D0A1202788E1A8F1BE51C75F00AE2
:1001CC0084E5F0251BF51BE4351AF51A750C04AB08
:1001DC001BFA7D017F021203E20519E51970020575
:1001EC0018E51C640B7036E51BB4290DE51AB4092F
:1001FC00087BFF7A04799780067BFF7A04799B7DD4
:10020C000E7F01120406E4F51AF51BF518F51975A5
:10021C000C04AB1BAA1A7D017F021203E2E51C64DD
:10022C000C600302019CF51AF51BF518F519750CF9
:0F023C0004AB1BAA1A7D017F021203E202019C90
:10046500EF4E600F7D027CEFDCFEDDFCEF1F70F0D0
:030475001E80EDF9
:010478002261
:06049F00C2A58F80D2A768
:0804A5007F027EEFDEFEDFFCAA
:0104AD00222C
:0A04BA00C2A612049FC2A70204A507
:10042900CFCDCFCECCCE12028A7C007D0A12028AB1
:04043900ED2430FF7F
:0A043D00D2A612049FC2A70204A574
:10044700AE07EEFB7A0064017004ED148009EB64DB
:0E045700024A7009ED243F4480FF1204BA22CD
:100479007F381204BA7F0C1204BA7F061204BA7FBD
:04048900010204BAAE
:0A04C400AC03120447AF0402043D2C
:060406008B088A09890A37
:10040C00120447E4FDAB08AA09A90A8D8275830082
:0C041C0012024BFF600612043D0D80E947
:0104280022B1
:0A03B100EF24FFFDEE34FFFC7F0A8D
:0803BB008E0D8F0E8C0F8D10CA
:1003C3007F017E00E4FBEBC39510E50F6480F874B6
:0E03D3008098500AAC0DAD0E1202780B80E837
:0103E10022F9
:0403E2008A0A8B0BED
:1003E600120447AA0CEAFF7E00D39400748094801E
:0F03F600400D1203B1AC0AAD0B1204291A80E6B8
:0104050022D4
:04032A008B828A83B5
:10032E00120447C3E58364809480400D7F2B120432
:10033E003D85831685821780107F2D12043DC3E400
:10034E009582F517E49583F516AA15EAFF7E00D37C
:10035E00940074809480400D1203B1AC16AD171248
:05036E0004291A80E6DD
:010373002267
:0402DF008A1F8B20C7
:1002E300120447AA21EAD39400748094804037EA29
:1002F30024FFFDE434FFFC7F107E001203BBAC1F20
:10030300AD20CFCDCFCECCCE12028AEF540FFEC399
:10031300940A74809480EE5004243080022437FFC2
:0603230012043D1A80BF28
:0103290022B1
:040374008A248B2527
:10037800120447AA26EAFF7E00D394007480948072
:100388004026EF24FFFDEE34FFFC7F021203BBACD6
:1003980024AD25CFCDCFCECCCE12028AEF54012486
:0803A80030FF12043D1A80CD64
:0103B000222A
:10000300E4F5087590FFC2932097137F14FE120442
:10001300653097FD7F147E001204657508012096F4
:10002300147F147E001204653096FD7F147E001247
:1000330004657508052095147F147E00120465304D
:1000430095FD7F147E001204657508092094147FC2
:10005300147E001204653094FD7F147E0012046543
:1000630075080D7590FFC2922097147F147E0012BD
:1000730004653097FD7F147E001204657508022025
:1000830096147F147E001204653096FD7F147E0063
:100093001204657508062095147F147E001204650A
:1000A3003095FD7F147E0012046575080A209414B0
:1000B3007F147E001204653094FD7F147E001204C9
:1000C3006575080E7590FFC2912097147F147E000A
:1000D3001204653097FD7F147E00120465750803D2
:1000E3002096147F147E001204653096FD7F147EE3
:1000F300001204657508072095147F147E0012040E
:10010300653095FD7F147E0012046575080B2094FD
:10011300147F147E001204653094FD7F147E001258
:10012300046575080F7590FFC2902097147F147EA5
:10013300001204653097FD7F147E00120465750874
:10014300042096147F147E001204653096FD7F14FC
:100153007E001204657508082095147F147E001232
:1001630004653095FD7F147E0012046575080C202C
:1001730094147F147E001204653094FD7F147E0076
:08018300120465750810AF08B5
:01018B002251
:030000000204AE49
:0C04AE00787FE4F6D8FD75812602018CF1
:10024B00BB010CE58229F582E5833AF583E0225068
:10025B0006E92582F8E622BBFE06E92582F8E222B2
:0D026B00E58229F582E5833AF583E49322CC
:10027800EF8DF0A4A8F0CF8CF0A428CE8DF0A42E9A
:02028800FE2254
:10028A00BC000BBE0029EF8DF084FFADF022E4CC58
:10029A00F875F008EF2FFFEE33FEEC33FCEE9DEC21
:1002AA00984005FCEE9DFE0FD5F0E9E4CEFD22ED67
:1002BA00F8F5F0EE8420D21CFEADF075F008EF2FB1
:1002CA00FFED33FD4007985006D5F0F222C398FDA2
:0502DA000FD5F0EA223F
:00000001FF
