:10000300E4F508F50920B13112008630B1FD120084
:1000130086C3E5099408E50894004005E4F508F56E
:1000230009AF09A8077401088002C333D8FCF4F5AB
:10003300A00509E5097002050820B0C91200863041
:10004300B0FD120086D3E5099400E508940050182A
:10005300AF09A8077401088002C333D8FCF4F5A0E4
:10006300750800750908809DE509150970021508D2
:10007300AF09A8077401088002C333D8FCF4F5A0C4
:0300830002000870
:040086007F147E0065
:10008A00EF4E600F7D027CEFDCFEDDFCEF1F70F0AF
:03009A001E80EDD8
:01009D002240
:0300000002009E5D
:0C009E00787FE4F6D8FD758109020003AC
:00000001FF
