:1008A90020202D20202D20200020203A20203A2011
:0508B9002000202000DA
:04091A00021F0000B8
:10063B001208BE1200031208921204BA7BFF7A084A
:10064B0079A97D017F011208337BFF7A0879B27D8E
:10065B00017F0212083312051D8F21EF6401701602
:10066B00AF23FEEF7005752301800BEF64014E7015
:10067B0005F5231204BAE5231460080470D812059B
:08068B00DE80D312000E80CEC8
:1005DE00120728E518FB7A00750C027D017F0112C7
:1005EE00080FE519FB7A00750C027D047F011208D5
:1005FE000FE51AFB7A00750C027D077F0112080FBA
:10060E00E51BFB7A00750C027D017F0212080FE5D7
:10061E001CFB7A00750C027D047F0212080FE51D8B
:0D062E00FB7A00750C027D077F0202080FA9
:10000E00AF217E00EF6402700B0522E52275F0062B
:10001E008485F022EF64034E60030200CF7418252E
:10002E0022F806D3E5189463748094804003E4F5B7
:10003E0018D3E519940C748094804003751901123D
:10004E0003CDEF641F700ED3E51A941F7480948055
:10005E004003751A011203CDEF641E700ED3E51A1C
:10006E00941E748094804003751A011203CDEF64C0
:10007E001D700ED3E51A941D748094804003751A7A
:10008E00011203CDEF641C700ED3E51A941C74801C
:10009E0094804003751A01D3E51B941874809480E4
:1000AE004003E4F51BD3E51C943B7480948040031D
:1000BE00E4F51CD3E51D943B748094804003E4F575
:1000CE001DE521640460030201B474182522F8169C
:1000DE00D3E5189464748094804003751863C3E567
:1000EE0019940174809480500375190C1203CDEF8E
:1000FE00641F701CC3E51A940174809480500375BC
:10010E001A1FD3E51A941F748094804003751A0148
:10011E001203CDEF641E701CC3E51A940174809413
:10012E00805003751A1ED3E51A941E748094804075
:10013E0003751A011203CDEF641D701CC3E51A94EA
:10014E0001748094805003751A1DD3E51A941D74A2
:10015E008094804003751A011203CDEF641C701C4D
:10016E00C3E51A9401748094805003751A1CD3E56C
:10017E001A941C748094804003751A01D3E51B9465
:10018E0064748094804003751B18D3E51C946474CA
:10019E008094804003751C3BD3E51D946474809459
:1001AE00804003751D3BE5227015E5246401700F38
:1001BE007BFF7A0879BB7D017F01120833800FE542
:1001CE0018FB7A00750C027D017F0112080FE522E3
:1001DE0064017015E5246401700F7BFF7A0879BB0A
:1001EE007D047F01120833800FE519FB7A00750C30
:1001FE00027D047F0112080FE52264027015E524CA
:10020E006401700F7BFF7A0879BB7D077F011208AE
:10021E0033800FE51AFB7A00750C027D077F011201
:10022E00080FE52264037015E5246401700F7BFF4F
:10023E007A0879BB7D017F02120833800FE51BFB24
:10024E007A00750C027D017F0212080FE52264040C
:10025E007015E5246401700F7BFF7A0879BB7D046D
:10026E007F02120833800FE51CFB7A00750C027DAD
:10027E00047F0212080FE52264057013E524640161
:10028E00700D7BFF7A0879BB7D077F02020833E58C
:0F029E001DFB7A00750C027D077F0212080F22EC
:0A03CD00E51824D0FFE519FD7C00BF
:1003D7008F08AB05AA047E007C017D901202ECED2C
:1003E7004C6010E50854037013E50875F06484E564
:1003F700F06009EB64024A704E7F1D22EB64014AEC
:100407006024EB64034A601EEB64054A6018EB64E2
:10041700074A6012EB64084A600CEB640A4A6006FC
:10042700EB640C4A70037F1F22EB64044A6012EBF3
:1004370064064A600CEB64094A6006EB640B4A7079
:0A044700037F1E227F1C227F00228B
:03000B000207A643
:0907A600C0E0C0D075D000C0070E
:1007AF00758A18758CFC0520E5207002051FB42C86
:1007BF0017E51FB40112751F00752000E5247004A2
:0807CF007F0180027F008F24EE
:0707D700D007D0D0D0E032C2
:06090B00C2A58F80D2A7F7
:080911007F027EEFDEFEDFFC39
:0109190022BB
:0A092800C2A612090BC2A7020911B2
:10085600CFCDCFCECCCE1202EC7C007D0A1202ECBC
:04086600ED2430FF4E
:0A086A00D2A612090BC2A702091161
:10087400AE07EEFB7A0064017004ED148009EB64AA
:0E088400024A7009ED243F4480FF1209282229
:1008BE007F381209287F0C1209287F061209287F1B
:0408CE0001020928F2
:0A093200AC03120874AF0402086A57
:060833008B088A09890A06
:10083900120874E4FDAB08AA09A90A8D8275830020
:0C0849001202ADFF600612086A0D80E983
:010855002280
:0A07DE00EF24FFFDEE34FFFC7F0A5C
:0807E8008E0D8F0E8C0F8D1099
:1007F0007F017E00E4FBEBC39510E50F6480F87485
:0E0800008098500AAC0DAD0E1202DA0B80E8A3
:01080E0022C7
:04080F008A0A8B0BBB
:10081300120874AA0CEAFF7E00D3940074809480BB
:0F082300400D1207DEAC0AAD0B1208561A80E624
:0108320022A3
:0406DE008B828A83FE
:1006E200120874C3E58364809480400D7F2B120846
:1006F2006A85831685821780107F2D12086AC3E4EB
:100702009582F517E49583F516AA15EAFF7E00D3C4
:10071200940074809480400D1207DEAC16AD17125F
:0507220008561A80E6F4
:0107270022AF
:040693008A278B28FF
:10069700120874AA29EAD39400748094804037EA38
:1006A70024FFFDE434FFFC7F107E001207E8AC272F
:1006B700AD28CFCDCFCECCCE1202ECEF540FFEC378
:1006C700940A74809480EE5004243080022437FF0B
:0606D70012086A1A80BF40
:0106DD0022FA
:040769008A2C8B2D1E
:10076D00120874AA2EEAFF7E00D394007480948040
:10077D004026EF24FFFDEE34FFFC7F021207E8ACAC
:10078D002CAD2DCFCDCFCECCCE1202ECEF5401241B
:08079D0030FF12086A1A80CD3A
:0107A5002231
:09091E000718160C1F173B3A02E2
:1008E600EF75F00A84C454F0FEEF75F00A84EE2525
:0208F600F0FF11
:0108F80022DD
:0308F90012057E67
:0E08FC00EFC4540F75F00AA4FEEF540F2EFF48
:01090A0022CA
:05000300C2B6C2B522E7
:060451008C088D09AB07C9
:10045700D2B5E4FDEDC394087480948050227E00E9
:100467007401A805088005C333CE33CED8F9FFEB56
:10047700F582EF558224FF92B4D2B6C2B60D80D46E
:10048700E4FDEDC394087480948050247E007401C9
:10049700A805088005C333CE33CED8F9FFE5085E3B
:1004A700FEE5095F4E24FF92B4D2B6C2B60D80D2E4
:0204B700C2B5CC
:0104B9002220
:02057E00AD07C7
:10058000E4F9430501D2B5FBEBC394087480948071
:1005900050227E007401A803088005C333CE33CEF9
:1005A000D8F9FFEDF582EF558224FF92B4C2B6D29E
:1005B000B60B80D4E4FBEBC394087480948050178E
:1005C000D2B6C2B630B40DA8037401088002C3339A
:0D05D000D8FC42010B80DFC2B5C2B4AF0100
:0105DD0022FB
:1004BA00E4FDFC7F8E120451AF181208E6EFFD7FAF
:1004CA008C120451AF191208E6EFFD7F881204510D
:1004DA00AF1A1208E6EFFD7F86120451AF1B12080D
:1004EA00E6EFFD7F84120451AF1C1208E6EFFD7F90
:1004FA0082120451AF1D1208E6EFFD7F80120451EB
:10050A00AF1E1208E6EFFD7F8A1204517D807F8EAE
:03051A0002045187
:100728007F8C1208F98F187F881208F98F197F8635
:1007380012057E1208FC8F1A7F8412057E1208FCAF
:100748008F1B7F8212057E1208FC8F1C7F8012058A
:100758007E1208FC8F1D7F8A12057E1208FC8F1EF0
:01076800226E
:1008D200EF4E600F7D027CEFDCFEDDFCEF1F70F05F
:0308E2001E80ED88
:0108E50022F0
:10051D00E4F50820B1137F14FE1208D230B1FD7F2F
:10052D00147E001208D275080120B0147F147E00CD
:10053D001208D230B0FD7F147E001208D275080269
:10054D0020B2147F147E001208D230B2FD7F147ECB
:10055D00001208D275080320B3147F147E00120810
:10056D00D230B3FD7F147E001208D2750804AF0897
:01057D00225B
:100892005389F0438901758A18758CFCC28DD28CFC
:0708A200D2A9D2AFC2B922B6
:03000000020341B7
:0C034100787FE4F6D8FD75812E02038859
:1002AD00BB010CE58229F582E5833AF583E0225006
:1002BD0006E92582F8E622BBFE06E92582F8E22250
:0D02CD00E58229F582E5833AF583E493226A
:1002DA00EF8DF0A4A8F0CF8CF0A428CE8DF0A42E38
:0202EA00FE22F2
:1002EC00BC000BBE0029EF8DF084FFADF022E4CCF6
:1002FC00F875F008EF2FFFEE33FEEC33FCEE9DECBF
:10030C00984005FCEE9DFE0FD5F0E9E4CEFD22ED04
:10031C00F8F5F0EE8420D21CFEADF075F008EF2F4E
:10032C00FFED33FD4007985006D5F0F222C398FD3F
:05033C000FD5F0EA22DC
:10034D0002063BE493A3F8E493A34003F68001F285
:10035D0008DFF48029E493A3F85407240CC8C333B1
:10036D00C4540F4420C8834004F456800146F6DF80
:10037D00E4800B010204081020408090091AE47EED
:10038D00019360BCA3FF543F30E509541FFEE49375
:10039D00A360010ECF54C025E060A840B8E493A33C
:1003AD00FAE493A3F8E493A3C8C582C8CAC583CA67
:1003BD00F0A3C8C582C8CAC583CADFE9DEE780BE1F
:0109270000CF
:00000001FF
