:10017E001200F28F16E51660F77F647E00120153AF
:0C018E00E516FD7C007F0112008F80E46C
:10019A00EF4E600F7D027CEFDCFEDDFCEF1F70F09E
:0301AA001E80EDC7
:0101AD00222F
:1000F200E4F51420B1137F14FE12019A30B1FD7F92
:10010200147E0012019A75140120B0147F147E002F
:1001120012019A30B0FD7F147E0012019A7514020A
:1001220020B2147F147E0012019A30B2FD7F147E39
:100132000012019A75140320B3147F147E00120179
:100142009A30B3FD7F147E0012019A751404AF1425
:01015200228A
:0C01BD000A083F065B4F666D7D077F6FF0
:10008F00EF14B4080050549000A475F003A4C58376
:10009F0025F0C583730200BC0200C00200C4020039
:1000AF00C80200CC0200D40200DC0200E4D2A4801B
:1000BF000ED2A48012D2A48016D2A4801AC2A4D2C7
:1000CF00A3D2A28016C2A4D2A3C2A2800EC2A4C27F
:1000DF00A3D2A28006C2A4C2A3C2A274082DF8E6BE
:0300EF00F5802277
:0E01AE0000007F177ECD7D78DDFEDEFCDFFADF
:0101BC002220
:100153008E148F15E4F512F513E51525E0FFE5146C
:1001630033FEC3E5139FE5129E500FB2A5120000A4
:0B0173000513E51370E3051280DF2286
:03000000020003F8
:0C000300787FE4F6D8FD75811602004AF3
:10000F0002017EE493A3F8E493A34003F68001F288
:10001F0008DFF48029E493A3F85407240CC8C333F2
:10002F00C4540F4420C8834004F456800146F6DFC1
:10003F00E4800B01020408102040809001BDE47E93
:10004F00019360BCA3FF543F30E509541FFEE493B6
:10005F00A360010ECF54C025E060A840B8E493A37D
:10006F00FAE493A3F8E493A3C8C582C8CAC583CAA8
:10007F00F0A3C8C582C8CAC583CADFE9DEE780BE60
:0101C9000035
:00000001FF
