:100402005772697465204F4B002020202020202045
:0B04120020005265616420204F4B0069
:10000300120431802612016F8F24EF6401700E05F4
:1000130023E52370020522750C05FB8013E5246498
:10002300027018E523152370021522750C05AB2306
:10003300AA227D017F0112035B80CAE52464037059
:1000430042FCAD23FF12037F7F057E0012041DE5F2
:1000530022FD7C007F0112037F7F057E0012041DB9
:100063007BFF7A0479027D017F021203A37FE87E7E
:100073000312041D7BFF7A04790B7D017F021203B7
:10008300A38082E52464046003020008FF120305D1
:100093007522008F237F01120305EFFEEE42227FBC
:1000A300057E0012041D750C05AB23AA227D017F7A
:1000B3000112035B7BFF7A0479147D017F02120333
:1000C300A37FE87E0312041D7BFF7A04790B7D0175
:0800D3007F021203A3020008E2
:10041D00EF4E600F7D027CEFDCFEDDFCEF1F70F018
:03042D001E80ED41
:0104300022A9
:10016F00E4F50820B1137F14FE12041D30B1FD7F9A
:10017F00147E0012041D75080120B0147F147E0038
:10018F0012041D30B0FD7F147E0012041D7508028D
:10019F0020B2147F147E0012041D30B2FD7F147E36
:1001AF000012041D75080320B3147F147E0012047F
:1001BF001D30B3FD7F147E0012041D750804AF08B7
:0101CF00220D
:06044500C2A58F80D2A7C2
:08044B007F027EEFDEFEDFFC04
:010453002286
:0A046C00C2A6120445C2A702044B09
:1003C600CFCDCFCECCCE12011A7C007D0A12011AF7
:0403D600ED2430FFE3
:0A03DA00D2A6120445C2A702044B8C
:1003E400AE07EEFB7A0064017004ED148009EB643F
:0E03F400024A7009ED243F4480FF12046C227F
:100431007F3812046C7F0C12046C7F0612046C7FEF
:040441000102046C44
:0A047600AC031203E4AF040203DA42
:0603A3008B088A09890A9B
:1003A9001203E4E4FDAB08AA09A90A8D827583004A
:0C03B9001200DBFF60061203DA0D80E981
:0103C5002215
:0A02D400EF24FFFDEE34FFFC7F0A6B
:0802DE008E0D8F0E8C0F8D10A8
:1002E6007F017E00E4FBEBC39510E50F6480F87494
:0E02F6008098500AAC0DAD0E1201080B80E886
:0103040022D6
:04035B008A0A8B0B74
:10035F001203E4AA0CEAFF7E00D394007480948009
:0F036F00400D1202D4AC0AAD0B1203C61A80E681
:01037E00225C
:04021B008B828A83C5
:10021F001203E4C3E58364809480400D7F2B1203A7
:10022F00DA85831685821780107F2D1203DAC3E4D7
:10023F009582F517E49583F516AA15EAFF7E00D38C
:10024F00940074809480400D1202D4AC16AD171236
:05025F0003C61A80E651
:010264002277
:0401D0008A1A8B1BE1
:1001D4001203E4AA1CEAD39400748094804037EAA2
:1001E40024FFFDE434FFFC7F107E001202DEAC1A13
:1001F400AD1BCFCDCFCECCCE12011AEF540FFEC320
:10020400940A74809480EE5004243080022437FFD2
:060214001203DA1A80BF9C
:01021A0022C1
:040265008A1F8B2041
:100269001203E4AA21EAFF7E00D3940074809480EB
:100279004026EF24FFFDEE34FFFC7F021202DEACC4
:100289001FAD20CFCDCFCECCCE12011AEF54012411
:0802990030FF1203DA1A80CDD8
:0102A100223A
:10037F008F088C098D0A12048A7FA01202A2120420
:10038F0054AF081202A2120454AF0A1202A21204AE
:04039F00540204936D
:020305008F085F
:1003070012048A7FA01202A2120454AF081202A29A
:1003170012045412048A7FA11202A2120454120377
:0D032700358F097F01120480120493AF0985
:0103340022A6
:09048A00D2A0D2A1C2A0C2A1229D
:07049300C2A0D2A1D2A022F9
:0202A200AD07A6
:1002A400E4FBEBC394087480948050237E00748034
:1002B400A803088006CEA2E713CE13D8F8FFEDF505
:0F02C40082EF558224FF92A0D2A1C2A10B80D35A
:0102D3002208
:10033500D2A0E4FEEEC39408748094805017D2A135
:1003450030A00DA8067480088002C313D8FC4207AC
:05035500C2A10E80DFD3
:01035A002280
:0A048000EF24FF92A0D2A1C2A12236
:0B045400D2A0D2A1A2A0E433FFC2A1FD
:01045F00227A
:0300000002046097
:0C046000787FE4F6D8FD758124020003CB
:1000DB00BB010CE58229F582E5833AF583E02250DA
:1000EB0006E92582F8E622BBFE06E92582F8E22224
:0D00FB00E58229F582E5833AF583E493223E
:10010800EF8DF0A4A8F0CF8CF0A428CE8DF0A42E0B
:02011800FE22C5
:10011A00BC000BBE0029EF8DF084FFADF022E4CCC9
:10012A00F875F008EF2FFFEE33FEEC33FCEE9DEC92
:10013A00984005FCEE9DFE0FD5F0E9E4CEFD22EDD8
:10014A00F8F5F0EE8420D21CFEADF075F008EF2F22
:10015A00FFED33FD4007985006D5F0F222C398FD13
:05016A000FD5F0EA22B0
:00000001FF
