:0403150002250000BD
:10026D001202CA0526E52670020525750C03FBAAA8
:10027D00257D017F021202267FE87E031202DE80B9
:01028D00E28E
:0602F200C2A58F80D2A717
:0802F8007F027EEFDEFEDFFC59
:0103000022DA
:0A030100C2A61202F2C2A70202F81F
:10028E00CFCDCFCECCCE1200427C007D0A120042E2
:04029E00ED2430FF1C
:0A02A200D2A61202F2C2A70202F86F
:1002AC00AE07EEFB7A0064017004ED148009EB6478
:0E02BC00024A7009ED243F4480FF1203012224
:1002CA007F381203017F0C1203017F061203017F9C
:0402DA000102030119
:0A030B00AC031202ACAF040202A220
:06024A008B228A238924A7
:100250001202ACE4FDAB22AA23A9248D827583008F
:0C026000120003FF60061202A20D80E9EC
:01026C00226F
:0A01F500EF24FFFDEE34FFFC7F0A4B
:0801FF008E0D8F0E8C0F8D1088
:100207007F017E00E4FBEBC39510E50F6480F87473
:0E0217008098500AAC0DAD0E1200300B80E83E
:0102250022B6
:040226008A0A8B0BAA
:10022A001202ACAA0CEAFF7E00D394007480948078
:0F023A00400D1201F5AC0AAD0B12028E1A80E6D0
:010249002292
:04016E008B828A8373
:100172001202ACC3E58364809480400D7F2B12028F
:10018200A285831685821780107F2D1202A2C3E4F6
:100192009582F517E49583F516AA15EAFF7E00D33A
:1001A200940074809480400D1201F5AC16AD1712C4
:0501B200028E1A80E638
:0101B7002225
:040123008A1A8B1B8E
:100127001202ACAA1CEAD39400748094804037EA88
:1001370024FFFDE434FFFC7F107E001201FFAC1AA0
:10014700AD1BCFCDCFCECCCE120042EF540FFEC3A6
:10015700940A74809480EE5004243080022437FF80
:060167001202A21A80BF83
:01016D00226F
:0401B8008A1F8B20EF
:1001BC001202ACAA21EAFF7E00D3940074809480D2
:1001CC004026EF24FFFDEE34FFFC7F021201FFAC52
:1001DC001FAD20CFCDCFCECCCE120042EF54012498
:0801EC0030FF1202A21A80CDBF
:0101F40022E8
:1002DE00EF4E600F7D027CEFDCFEDDFCEF1F70F059
:0302EE001E80ED82
:0102F10022EA
:0300000002009764
:0C009700787FE4F6D8FD7581260200DEBB
:10000300BB010CE58229F582E5833AF583E02250B2
:1000130006E92582F8E622BBFE06E92582F8E222FC
:0D002300E58229F582E5833AF583E4932216
:10003000EF8DF0A4A8F0CF8CF0A428CE8DF0A42EE4
:02004000FE229E
:10004200BC000BBE0029EF8DF084FFADF022E4CCA2
:10005200F875F008EF2FFFEE33FEEC33FCEE9DEC6B
:10006200984005FCEE9DFE0FD5F0E9E4CEFD22EDB1
:10007200F8F5F0EE8420D21CFEADF075F008EF2FFB
:10008200FFED33FD4007985006D5F0F222C398FDEC
:050092000FD5F0EA2289
:1000A30002026DE493A3F8E493A34003F68001F204
:1000B30008DFF48029E493A3F85407240CC8C3335E
:1000C300C4540F4420C8834004F456800146F6DF2D
:1000D300E4800B0102040810204080900315E47EA5
:1000E300019360BCA3FF543F30E509541FFEE49322
:1000F300A360010ECF54C025E060A840B8E493A3E9
:10010300FAE493A3F8E493A3C8C582C8CAC583CA13
:10011300F0A3C8C582C8CAC583CADFE9DEE780BECB
:0103190000E3
:00000001FF
