:10006400C288C289D2A8D2AFC2B87590F07FF47E9C
:100074000112008475900F7FF47E0112008480EADF
:03000300020006F2
:10000600C0E0C0F0C083C082C0D075D000C000C0C0
:0D00160001C002C003C004C005C006C00741
:10002300750800C3E50894087480948050187FFE17
:10003300A808EF08800123D8FDF5907FF47E011214
:060043000084050880DDC9
:10004900D007D006D005D004D003D002D001D0000B
:0B005900D0D0D082D083D0F0D0E032B5
:10008400EF4E600F7D027CEFDCFEDDFCEF1F70F0B5
:030094001E80EDDE
:010097002246
:0300000002009863
:0C009800787FE4F6D8FD75810802006452
:00000001FF
