:10015E001201C4E4F514C3E51494647480948050C1
:10016E000E8514127F0A7E001201D8051480E775E1
:10017E001464D3E51494007480948040D6851412D0
:0B018E007F0A7E001201D8151480E7E4
:03000B0002019956
:10019900C0E0C0F0C0D0758AAE758CFB0513E513BD
:1001A90075F0648485F013E513C395125004D2A148
:0B01B9008002C2A1D0D0D0F0D0E03214
:1001C4005389F0758AAE758CFBC28DD28CD2A9D2BC
:0401D400AFC2B922DB
:1001D800EF4E600F7D027CEFDCFEDDFCEF1F70F060
:0301E8001E80ED89
:0101EB0022F1
:1000FD00E4F51520B1137F14FE1201D830B1FD7F48
:10010D00147E001201D875150120B0147F147E00E5
:10011D001201D830B0FD7F147E001201D875150282
:10012D0020B2147F147E001201D830B2FD7F147EF0
:10013D00001201D875150320B3147F147E0012012F
:10014D00D830B3FD7F147E001201D8751504AF159C
:01015D00227F
:0C01EC000A083F065B4F666D7D077F6FC1
:10009A00EF14B4080050549000AF75F003A4C58360
:1000AA0025F0C583730200C70200CB0200CF02000D
:1000BA00D30200D70200DF0200E70200EFD2A480D9
:1000CA000ED2A48012D2A48016D2A4801AC2A4D2BC
:1000DA00A3D2A28016C2A4D2A3C2A2800EC2A4C274
:1000EA00A3D2A28006C2A4C2A3C2A274082DF8E6B3
:0300FA00F580226C
:0300000002000EED
:0C000E00787FE4F6D8FD758115020055DE
:10001A0002015EE493A3F8E493A34003F68001F29D
:10002A0008DFF48029E493A3F85407240CC8C333E7
:10003A00C4540F4420C8834004F456800146F6DFB6
:10004A00E4800B01020408102040809001ECE47E59
:10005A00019360BCA3FF543F30E509541FFEE493AB
:10006A00A360010ECF54C025E060A840B8E493A372
:10007A00FAE493A3F8E493A3C8C582C8CAC583CA9D
:10008A00F0A3C8C582C8CAC583CADFE9DEE780BE55
:0101F8000006
:00000001FF
