:1000A900042424247FC4440404FF044434050400C4
:1000B9000000000000000000000000000000000037
:10000300E4F509F50A1200E9E4F508C3E5089408E4
:10001300748094805014E50825099000A993FD7C11
:1000230000AF08120087050880E1050AC3E50A94BA
:10003300DC7480948540D1E4F50A74082509F50938
:0E004300D394187480948040BFE4F50980BA0D
:1000C900EF4E600F7D027CEFDCFEDDFCEF1F70F070
:0300D9001E80ED99
:0100DC002201
:02005100AD07F9
:10005300E4FBEBC394087480948050237E00748087
:10006300A803088006CEA2E713CE13D8F8FFEDF558
:1000730082EF558224FF92B4D2B6C2B60B80D3D29C
:03008300B5C2B54E
:010086002257
:0500E900C2B6C2B52201
:10008700AA07AF05120051AF02A8077480088002C3
:10009700C313D8FCF4F5807F017E001200C9758078
:0200A700FF2236
:030000000200DD1E
:0C00DD00787FE4F6D8FD75810A0200036C
:00000001FF
