:100214000A0D3F065B4F666D7D077F6F0208000085
:10009A00EF14B4080050549000AF75F003A4C58360
:1000AA0025F0C583730200C70200CB0200CF02000D
:1000BA00D30200D70200DF0200E70200EFD2A480D9
:1000CA000ED2A48012D2A48016D2A4801AC2A4D2BC
:1000DA00A3D2A28016C2A4D2A3C2A2800EC2A4C274
:1000EA00A3D2A28006C2A4C2A3C2A2740D2DF8E6AE
:0D00FA00F5807F017E00120200E4F58022F7
:100168001201E9E4F50A1201078F0B7E00EF640122
:100178007003750A01EF64024E7002F50CEF640318
:100188004E7002F50AEF64044E6020E50C75F00A23
:1001980084FD7C007F0112009AE50C75F00A84E565
:0C01A800F0FD7C007F0212009A80BB2258
:03000B000201B43B
:0401B400C0E0C0D017
:1001B800758A18758CFCE50A640170200509E50943
:1001C80070020508B4E815E508B403107508007551
:0C01D8000900050CE50C643C7002F50CFD
:0501E400D0D0D0E03294
:10020000EF4E600F7D027CEFDCFEDDFCEF1F70F037
:030210001E80ED60
:0102130022C8
:10010700E4F51720B1137F14FE12020030B1FD7F12
:10011700147E0012020075170120B0147F147E00B0
:1001270012020030B0FD7F147E0012020075170224
:1001370020B2147F147E0012020030B2FD7F147EBD
:100147000012020075170320B3147F147E001202F9
:100157000030B3FD7F147E00120200751704AF173D
:010167002275
:1001E9005389F0438901758A18758CFCC28DD28CAC
:0701F900D2A9D2AFC2B92266
:0300000002000EED
:0C000E00787FE4F6D8FD758117020055DC
:10001A00020168E493A3F8E493A34003F68001F293
:10002A0008DFF48029E493A3F85407240CC8C333E7
:10003A00C4540F4420C8834004F456800146F6DFB6
:10004A00E4800B0102040810204080900214E47E30
:10005A00019360BCA3FF543F30E509541FFEE493AB
:10006A00A360010ECF54C025E060A840B8E493A372
:10007A00FAE493A3F8E493A3C8C582C8CAC583CA9D
:10008A00F0A3C8C582C8CAC583CADFE9DEE780BE55
:0102240000D9
:00000001FF
