:0300000002001EDD
:0C001E00787FE4F6D8FD758109020065CA
:0400D800020800001A
:1000030053890F438910758B18758DFCC28FD28E5F
:07001300D2ABD2AFC2BB2249
:0700D100120003C29080FE43
:03001B000200AA36
:0400AA00C0E0C0D022
:1000AE00758B18758DFC0509E50970020508B4B845
:0E00BE000DE508B40B08750800750900B29036
:0500CC00D0D0D0E032AD
:10002A000200D1E493A3F8E493A34003F68001F21B
:10003A0008DFF48029E493A3F85407240CC8C333D7
:10004A00C4540F4420C8834004F456800146F6DFA6
:10005A00E4800B01020408102040809000D8E47E5E
:10006A00019360BCA3FF543F30E509541FFEE4939B
:10007A00A360010ECF54C025E060A840B8E493A362
:10008A00FAE493A3F8E493A3C8C582C8CAC583CA8D
:10009A00F0A3C8C582C8CAC583CADFE9DEE780BE45
:0100DC000023
:00000001FF
