:1003AA00414444522020434D4420204E554D0030B4
:0E03BA00302020202030302020203030300035
:1001E8001204191204AD7BFF7A0379AA7D017F01FD
:1001F8001203877BFF7A0379B97D017F0212038797
:1002080012044CEF700612045AEF60F41204B38F14
:10021800281204B68F27E528FB7A007518027D019D
:100228007F02120260E527FB7A007518027D077FBE
:1002380002120260AF277E00EF641570021526EFE8
:1002480064094E70020526E526FB7A007518037DC1
:080258000C7F0212036380A871
:10040400EF4E6010007D027CC7DCFEDDFCEF1F7048
:04041400EF1E80EC6B
:0104180022C1
:06043D00C2A58F80D2A7CA
:080443007F027EEFDEFEDFFC0C
:01044B00228E
:0A048A00C2A612043DC2A7020443FB
:1003C800CFCDCFCECCCE1201937C007D0A12019303
:0403D800ED2430FFE1
:0A03DC00D2A612043DC2A70204439A
:1003E600AE07EEFB7A0064017004ED148009EB643D
:0E03F600024A7009ED243F4480FF12048A225F
:100419007F3812048A7F0C12048A7F0612048A7FAD
:040429000102048A3E
:0A049400AC031203E6AF040203DC20
:060387008B148A15891693
:10038D001203E6E4FDAB14AA15A9168D8275830040
:0C039D00120154FF60061203DC0D80E921
:0103A9002231
:0A033200EF24FFFDEE34FFFC7F0A0C
:08033C008E198F1A8C1B8D1C19
:100344007F017E00E4FBEBC3951CE51B6480F8741D
:0E0354008098500AAC19AD1A1201810B80E896
:010362002278
:040363008A168B1754
:100367001203E6AA18EAFF7E00D3940074809480F3
:0F037700400D120332AC16AD171203C81A80E600
:010386002254
:0402AB008B828A8335
:1002AF001203E6C3E58364809480400D7F2B120315
:1002BF00DC85832285822380107F2D1203DCC3E42B
:1002CF009582F523E49583F522AA21EAFF7E00D3D8
:1002DF00940074809480400D120332AC22AD23122F
:0502EF0003C81A80E6BF
:0102F40022E7
:040260008A168B1758
:100264001203E6AA18EAD39400748094804037EA13
:1002740024FFFDE434FFFC7F107E0012033CAC1627
:10028400AD17CFCDCFCECCCE120193EF540FFEC31A
:10029400940A74809480EE5004243080022437FF42
:0602A4001203DC1A80BF0A
:0102AA002231
:0402F5008A2B8B2C99
:1002F9001203E6AA2DEAFF7E00D39400748094804D
:100309004026EF24FFFDEE34FFFC7F0212033CACD4
:100319002BAD2CCFCDCFCECCCE120193EF540124EF
:0803290030FF1203DC1A80CD45
:0103310022A9
:0B047400D288C289D2A8D2AFC2B82241
:10042D005389F0438901E4F58AF58CC28DC28C2283
:0B047F00AD07AC068C8CAF058F8A2205
:09049E00AF8CEFFEAD8AEDFF22E8
:0604A700EF24FF928C22FD
:0604AD0012047402042D8C
:0304B300AF0C2269
:0304B600AF0B2267
:0E044C00E50F64017005F50F7F01227F00228D
:0E045A00E50D64017005F50D7F01227F002283
:03000300020006F2
:10000600C0E0C0F0C083C082C0D075D000C000C0C0
:1000160001C002C003C004C005C006C007E50870E1
:100026000CFFFE12047F7F011204A78049E50864D5
:1000360001704912049E8E098F0AE4FFFE12047FA6
:10004600D3E50A94A6E509942E4010E50A948CE5BA
:100056000994325006750802020139D3E50A948CD8
:10006600E50994264010E50A9474E509942A500699
:10007600750D01020131750801020139E5086402B6
:10008600600302013912049E8E098F0AE4FFFE12F4
:10009600047FD3E50A9414E5099402402BE50A94FB
:1000A600FCE50994055021E50E131313541F241083
:1000B600F8C000E6FFE50E5407FEF874010880025A
:1000C600C333D8FCF45F8033D3E50A9426E509945C
:1000D60006402FE50A940EE509940A5025E50E130D
:1000E6001313541F2410F8C000E6FFE50E5407FE54
:1000F600F87401088002C333D8FC4FD000F6050E11
:100106008006750E00750801C3E50E942074809470
:10011600804020750E00E511F4B5100FE513F4B517
:10012600120985100C85120B750F01E4FF1204A746
:10013600750800D007D006D005D004D003D002D071
:0E01460001D000D0D0D082D083D0F0D0E032F3
:030000000204688F
:0C046800787FE4F6D8FD75812D0201E8D4
:10015400BB010CE58229F582E5833AF583E0225060
:1001640006E92582F8E622BBFE06E92582F8E222AA
:0D017400E58229F582E5833AF583E49322C4
:10018100EF8DF0A4A8F0CF8CF0A428CE8DF0A42E92
:02019100FE224C
:10019300BC000BBE0029EF8DF084FFADF022E4CC50
:1001A300F875F008EF2FFFEE33FEEC33FCEE9DEC19
:1001B300984005FCEE9DFE0FD5F0E9E4CEFD22ED5F
:1001C300F8F5F0EE8420D21CFEADF075F008EF2FA9
:1001D300FFED33FD4007985006D5F0F222C398FD9A
:0501E3000FD5F0EA2237
:00000001FF
