:10043900436C6F636B3A00737461720073746F700D
:03044900003A0076
:0400030002110000E6
:10000E001204251203FA7BFF7A0479397D017F01F0
:10001E0012039B1201D08F14EF640170107513013F
:10002E007BFF7A0479407D0D7F0112039BAF147E16
:10003E0000EF64027006F517F516F515EF64034E22
:10004E00700FF5137BFF7A0479457D0D7F01120346
:10005E009BE5146404604AE517FB7A00750C027D7B
:10006E00017F021203777BFF7A04794A7D037F02B8
:10007E0012039BE516FB7A00750C027D047F0212BB
:10008E0003777BFF7A04794A7D067F0212039BE594
:10009E0015FB7A00750C027D077F021203770200B2
:0200AE0021220D
:03000B000202C628
:0202C600C0E096
:1002C800758A18758CFCE513640170320512E51205
:1002D8007002051164E87004E51164037020F511DB
:1002E800F5120515E515643C70020516E516643C23
:0E02F8007004F5160517E51764187002F51767
:03030600D0E03212
:10041100EF4E600F7D027CEFDCFEDDFCEF1F70F024
:030421001E80ED4D
:0104240022B5
:06044C00C2A58F80D2A7BB
:080452007F027EEFDEFEDFFCFD
:01045A00227F
:0A045B00C2A612044CC2A70204520C
:1003BE00CFCDCFCECCCE1200EF7C007D0A1200EF57
:0403CE00ED2430FFEB
:0A03D200D2A612044CC2A702045286
:1003DC00AE07EEFB7A0064017004ED148009EB6447
:0E03EC00024A7009ED243F4480FF12045B2298
:100425007F3812045B7F0C12045B7F0612045B7F2E
:040435000102045B61
:0A046500AC031203DCAF040203D263
:06039B008B088A09890AA3
:1003A1001203DCE4FDAB08AA09A90A8D827583005A
:0C03B1001200B0FF60061203D20D80E9BC
:0103BD00221D
:0A034600EF24FFFDEE34FFFC7F0AF8
:080350008E0D8F0E8C0F8D1035
:100358007F017E00E4FBEBC39510E50F6480F87421
:0E0368008098500AAC0DAD0E1200DD0B80E83F
:010376002264
:040377008A0A8B0B58
:10037B001203DCAA0CEAFF7E00D3940074809480F5
:0F038B00400D120346AC0AAD0B1203BE1A80E6FA
:01039A002240
:04027C008B828A8364
:100280001203DCC3E58364809480400D7F2B12034E
:10029000D285831D85821E80107F2D1203D2C3E478
:1002A0009582F51EE49583F51DAA1CEAFF7E00D316
:1002B000940074809480400D120346AC1DAD1E1254
:0502C00003BE1A80E6F8
:0102C5002216
:040231008A218B2271
:100235001203DCAA23EAD39400748094804037EA41
:1002450024FFFDE434FFFC7F107E00120350AC2137
:10025500AD22CFCDCFCECCCE1200EFEF540FFEC3E3
:10026500940A74809480EE5004243080022437FF71
:060275001203D21A80BF43
:01027B002260
:040309008A268B278E
:10030D001203DCAA28EAFF7E00D394007480948047
:10031D004026EF24FFFDEE34FFFC7F02120350ACAC
:10032D0026AD27CFCDCFCECCCE1200EFEF5401248A
:08033D0030FF1203D21A80CD3B
:010345002295
:1003FA005389F0438901758A18758CFCC28DD28C99
:07040A00D2A9D2AFC2B92252
:1001D000E4F50820B1137F14FE12041130B1FD7F45
:1001E000147E0012041175080120B0147F147E00E3
:1001F00012041130B0FD7F147E0012041175080244
:1002000020B2147F147E0012041130B2FD7F147EE0
:100210000012041175080320B3147F147E00120429
:100220001130B3FD7F147E00120411750804AF086D
:0102300022AB
:03000000020144B6
:0C014400787FE4F6D8FD75812802018B5D
:1000B000BB010CE58229F582E5833AF583E0225005
:1000C00006E92582F8E622BBFE06E92582F8E2224F
:0D00D000E58229F582E5833AF583E4932269
:1000DD00EF8DF0A4A8F0CF8CF0A428CE8DF0A42E37
:0200ED00FE22F1
:1000EF00BC000BBE0029EF8DF084FFADF022E4CCF5
:1000FF00F875F008EF2FFFEE33FEEC33FCEE9DECBE
:10010F00984005FCEE9DFE0FD5F0E9E4CEFD22ED03
:10011F00F8F5F0EE8420D21CFEADF075F008EF2F4D
:10012F00FFED33FD4007985006D5F0F222C398FD3E
:05013F000FD5F0EA22DB
:1001500002000EE493A3F8E493A34003F68001F2B7
:1001600008DFF48029E493A3F85407240CC8C333B0
:10017000C4540F4420C8834004F456800146F6DF7F
:10018000E4800B0102040810204080900003E47E0C
:10019000019360BCA3FF543F30E509541FFEE49374
:1001A000A360010ECF54C025E060A840B8E493A33B
:1001B000FAE493A3F8E493A3C8C582C8CAC583CA66
:1001C000F0A3C8C582C8CAC583CADFE9DEE780BE1E
:0100070000F8
:00000001FF
