:0300000002027782
:0C027700787FE4F6D8FD758124020205B2
:1002560057656C636F6D6520546F005A5A554C494B
:010266000097
:100205001202427BFF7A0279567D047F011201E2D8
:0F0215007BFF7A0279617D067F021201E280FE93
:0B0283000000007F0B7EBEDEFEDFFCF3
:01028E00224D
:10026700C2A2C2A0C2A18F80D2A200C2A2020283F0
:10019A00CFCDCFCECCCE1200427C007D0A120042D7
:0401AA00ED2430FF11
:1001AE00C2A2D2A0C2A18F80D2A200C2A20202839A
:10022400AE07EEFB7A0064017004ED148009EB6400
:0E023400024A7009ED243F4480FF1202672247
:100242007F381202677F0C1202677F061202677FF5
:04025200010202673C
:0A028F00AC03120224AF040201AE1A
:0601E2008B228A23892410
:1001E800120224E4FDAB22AA23A9248D8275830080
:0C01F800120003FF60061201AE0D80E94A
:0102040022D7
:0A016900EF24FFFDEE34FFFC7F0AD7
:080173008E1E8F1F8C208D21D0
:10017B007F017E00E4FBEBC39521E5206480F874DE
:0E018B008098500AAC1EAD1F1200300B80E8A9
:010199002243
:0401BE008A118B1205
:1001C200120224AA13EAFF7E00D394007480948062
:0F01D200400D120169AC11AD1212019A1A80E6AC
:0101E10022FB
:0400E2008B828A8300
:1000E600120224C3E58364809480400D7F2B1201A5
:1000F600AE85830D85820E80107F2D1201AEC3E47E
:100106009582F50EE49583F50DAA0CEAFF7E00D3E1
:10011600940074809480400D120169AC0DAD0E12EE
:05012600019A1A80E6B9
:01012B0022B1
:040097008A168B1723
:10009B00120224AA18EAD39400748094804037EAA1
:1000AB0024FFFDE434FFFC7F107E00120173AC16BD
:1000BB00AD17CFCDCFCECCCE120042EF540FFEC337
:1000CB00940A74809480EE5004243080022437FF0D
:0600DB001201AE1A80BF05
:0100E10022FC
:04012C008A1B8B1C83
:10013000120224AA1DEAFF7E00D3940074809480EA
:100140004026EF24FFFDEE34FFFC7F02120173AC6A
:100150001BAD1CCFCDCFCECCCE120042EF5401242C
:0801600030FF1201AE1A80CD40
:010168002274
:10000300BB010CE58229F582E5833AF583E02250B2
:1000130006E92582F8E622BBFE06E92582F8E222FC
:0D002300E58229F582E5833AF583E4932216
:10003000EF8DF0A4A8F0CF8CF0A428CE8DF0A42EE4
:02004000FE229E
:10004200BC000BBE0029EF8DF084FFADF022E4CCA2
:10005200F875F008EF2FFFEE33FEEC33FCEE9DEC6B
:10006200984005FCEE9DFE0FD5F0E9E4CEFD22EDB1
:10007200F8F5F0EE8420D21CFEADF075F008EF2FFB
:10008200FFED33FD4007985006D5F0F222C398FDEC
:050092000FD5F0EA2289
:00000001FF
