:0300000002028574
:0C028500787FE4F6D8FD7581240201F3B7
:1002740057656C636F6D6520546F005A5A554C492D
:010284000079
:1001F30012024E7BFF7A0279747D047F011201693A
:0F0203007BFF7A02797F7D067F0212016980FE00
:06026200C2A18F80D2A2B0
:0B0268000000007F0B7EBEDEFEDFFC0E
:010273002268
:0A029100C2A0120262C2A2020268BB
:10021200CFCDCFCECCCE1200427C007D0A1200425E
:04022200ED2430FF98
:0A022600D2A0120262C2A202026816
:10023000AE07EEFB7A0064017004ED148009EB64F4
:0E024000024A7009ED243F4480FF1202912211
:10024E007F381202917F0C1202917F061202917F6B
:04025E000102029106
:0A029B00AC03120230AF0402022689
:060169008B228A23892489
:10016F00120230E4FDAB22AA23A9248D82758300ED
:10017F00120003FF60181202267C0AECD39400745D
:0E018F0080948040061202681C80F00D80D71C
:01019D00223F
:0A019E00EF24FFFDEE34FFFC7F0AA2
:0801A8008E1E8F1F8C208D219B
:1001B0007F017E00E4FBEBC39521E5206480F874A9
:0E01C0008098500AAC1EAD1F1200300B80E874
:0101CE00220E
:0401CF008A118B12F4
:1001D300120230AA13EAFF7E00D394007480948045
:0F01E300400D12019EAC11AD121202121A80E6ED
:0101F20022EA
:0400E2008B828A8300
:1000E600120230C3E58364809480400D7F2B120298
:1000F6002685830D85820E80107F2D120226C3E48D
:100106009582F50EE49583F50DAA0CEAFF7E00D3E1
:10011600940074809480400D12019EAC0DAD0E12B9
:0501260002121A80E640
:01012B0022B1
:040097008A168B1723
:10009B00120230AA18EAD39400748094804037EA95
:1000AB0024FFFDE434FFFC7F107E001201A8AC1688
:1000BB00AD17CFCDCFCECCCE120042EF540FFEC337
:1000CB00940A74809480EE5004243080022437FF0D
:0600DB001202261A80BF8C
:0100E10022FC
:04012C008A1B8B1C83
:10013000120230AA1DEAFF7E00D3940074809480DE
:100140004026EF24FFFDEE34FFFC7F021201A8AC35
:100150001BAD1CCFCDCFCECCCE120042EF5401242C
:0801600030FF1202261A80CDC7
:010168002274
:10000300BB010CE58229F582E5833AF583E02250B2
:1000130006E92582F8E622BBFE06E92582F8E222FC
:0D002300E58229F582E5833AF583E4932216
:10003000EF8DF0A4A8F0CF8CF0A428CE8DF0A42EE4
:02004000FE229E
:10004200BC000BBE0029EF8DF084FFADF022E4CCA2
:10005200F875F008EF2FFFEE33FEEC33FCEE9DEC6B
:10006200984005FCEE9DFE0FD5F0E9E4CEFD22EDB1
:10007200F8F5F0EE8420D21CFEADF075F008EF2FFB
:10008200FFED33FD4007985006D5F0F222C398FDEC
:050092000FD5F0EA2289
:00000001FF
