:03000000020016E5
:0C001600787FE4F6D8FD75812802005DBB
:1001020010193F065B4F666D7D077F6F777C395E06
:02011200797101
:1000EE00EF4E600F7D027CEFDCFEDDFCEF1F70F04B
:0300FE001E80ED74
:0101010022DB
:1000D700D2A8D2AAD288D28AC289C28BD2AFC2B8DA
:0700E700C2BAE4F5A080FBA2
:03000300020006F2
:03000600B2803293
:030013000200A246
:0700A200C0E0C0D075D010D2
:1000A9007B03EB6024751800C3E5189410748094E1
:1000B90080501374192518F8E6F5A07F647E0012A4
:0900C90000EE051880E21B80D94D
:0500D200D0D0D0E032A7
:100022000200D7E493A3F8E493A34003F68001F21D
:1000320008DFF48029E493A3F85407240CC8C333DF
:10004200C4540F4420C8834004F456800146F6DFAE
:10005200E4800B0102040810204080900102E47E3B
:10006200019360BCA3FF543F30E509541FFEE493A3
:10007200A360010ECF54C025E060A840B8E493A36A
:10008200FAE493A3F8E493A3C8C582C8CAC583CA95
:10009200F0A3C8C582C8CAC583CADFE9DEE780BE4D
:0101140000EA
:00000001FF
