:1001F8001203D21203C0120378EF60521203CF8F9A
:100208001E7E00EF64167002F51FEF640C4E70033B
:10021800751F01EF64184E7003751F02EF645E4E80
:100228007003751F03E51F7004FF1203D5E51F64F3
:100238000170057F321203D5E51F640270057F4BFC
:100248001203D5E51F640370057F641203D5E51F0B
:0A025800FD7C007F01120262809C11
:10000600EF4E600F7D027CEFDCFEDDFCEF1F70F033
:030016001E80ED5C
:0100190022C4
:1002C500E4F52220B1137F14FE12000630B1FD7F44
:1002D500147E0012000675220120B0147F147E00E2
:1002E50012000630B0FD7F147E0012000675220252
:1002F50020B2147F147E0012000630B2FD7F147EFA
:100305000012000675220320B3147F147E0012002C
:100315000630B3FD7F147E00120006752204AF225D
:0103250022B5
:0C0394000A143F065B4F666D7D077F6F0B
:10026200EF14B40800505490027775F003A4C583CC
:1002720025F0C5837302028F0202930202970202E3
:100282009B02029F0202A70202AF0202B7D2A4801F
:100292000ED2A48012D2A48016D2A4801AC2A4D2F2
:1002A200A3D2A28016C2A4D2A3C2A2800EC2A4C2AA
:1002B200A3D2A28006C2A4C2A3C2A274142DF8E6DD
:0302C200F58022A2
:1003510053890F438910758BAE758DFBC28FD28E79
:07036100D2ABD2AFC2BB22F8
:0B03A100D288C289D2A8D2AFC2B82215
:0603C0001203A102036814
:0303CC00AF0C2251
:0303CF00AF0B224F
:0E037800E50F64017005F50F7F01227F002262
:0E038600E50D64017005F50D7F01227F002258
:0300030002001EDA
:10001E00C0E0C0F0C083C082C0D075D000C000C0A8
:10002E0001C002C003C004C005C006C007E50870C9
:10003E000CFFFE1203AC7F011203C68049E5086473
:10004E000170491203B78E098F0AE4FFFE1203AC4A
:10005E00D3E50A94A6E509942E4010E50A948CE5A2
:10006E000994325006750802020151D3E50A948CA8
:10007E00E50994264010E50A9474E509942A500681
:10008E00750D01020149750801020151E50864026E
:10009E0060030201511203B78E098F0AE4FFFE12AC
:1000AE0003ACD3E50A9414E5099402402BE50A94B7
:1000BE00FCE50994055021E50E131313541F24106B
:1000CE00F8C000E6FFE50E5407FEF8740108800242
:1000DE00C333D8FCF45F8033D3E50A9426E5099444
:1000EE0006402FE50A940EE509940A5025E50E13F5
:1000FE001313541F2410F8C000E6FFE50E5407FE3C
:10010E00F87401088002C333D8FC4FD000F6050EF8
:10011E008006750E00750801C3E50E942074809458
:10012E00804020750E00E511F4B5100FE513F4B5FF
:10013E00120985100C85120B750F01E4FF1203C610
:10014E00750800D007D006D005D004D003D002D059
:0E015E0001D000D0D0D082D083D0F0D0E032DB
:100368005389F0438901E4F58AF58CC28DC28C2249
:0B03AC00AD07AC068C8CAF058F8A22D9
:0903B700AF8CEFFEAD8AEDFF22D0
:0603C600EF24FF928C22DF
:0303D200020351D2
:0303D5008F202254
:03001B00020326B7
:10032600C0E0C0F0C0D0758BAE758DFB0521E52110
:1003360075F0648485F021E521C395205004D290A0
:0B0346008002C290D0D0D0F0D0E03296
:0300000002016C8E
:0C016C00787FE4F6D8FD7581220201B313
:100178000201F8E493A3F8E493A34003F68001F2A4
:1001880008DFF48029E493A3F85407240CC8C33388
:10019800C4540F4420C8834004F456800146F6DF57
:1001A800E4800B0102040810204080900394E47E50
:1001B800019360BCA3FF543F30E509541FFEE4934C
:1001C800A360010ECF54C025E060A840B8E493A313
:1001D800FAE493A3F8E493A3C8C582C8CAC583CA3E
:1001E800F0A3C8C582C8CAC583CADFE9DEE780BEF6
:0103A000005C
:00000001FF
