:02005100AD07F9
:10005300E4FBEBC394087480948050237E00748087
:10006300A803088006CEA2E713CE13D8F8FFEDF558
:1000730082EF558224FF92B4D2B6C2B60B80D3D29C
:03008300B5C2B54E
:010086002257
:10008700AA07AF05120051AF02A8077480088002C3
:10009700C313D8FCF4F5807F017E001200A9758098
:0200A700FF2236
:10000300C2B6C2B57D3C7C00E4FF1200877D427C12
:10001300007F011200877DA97C007F021200877D8B
:10002300857C007F031200877D857C007F0412009E
:10003300877DA97C007F051200877D427C007F06B7
:0E0043001200877D3C7C007F0712008780B68C
:1000A900EF4E600F7D027CEFDCFEDDFCEF1F70F090
:0300B9001E80EDB9
:0100BC002221
:030000000200BD3E
:0C00BD00787FE4F6D8FD7581070200038F
:00000001FF
