:0B03A90041444A204E544320524700BC
:0403C800022200000D
:10018E001203867BFF7A0379A97D017F0112031387
:10019E007F9C1201238E228F23750C03AB23AA2280
:1001AE007D017F021202EF7FDC1201238E228F234C
:1001BE00750C03AB23AA227D057F021202EF7FACE2
:1001CE001201238E228F23750C03AB23AA227D09E5
:0E01DE007F021202EF7F0A7E0012037280B2CF
:10037200EF4E600F7D027CEFDCFEDDFCEF1F70F0C4
:030382001E80EDED
:010385002255
:06039A00C2A58F80D2A76E
:0803A0007F027EEFDEFEDFFCB0
:0103A8002232
:0A03B400C2A612039AC2A70203A01A
:10033600CFCDCFCECCCE1200427C007D0A12004239
:04034600ED2430FF73
:0A034A00D2A612039AC2A70203A074
:10035400AE07EEFB7A0064017004ED148009EB64CF
:0E036400024A7009ED243F4480FF1203B422C8
:100386007F381203B47F0C1203B47F061203B47FC6
:04039600010203B4A9
:0A03BE00AC03120354AF0402034A1B
:060313008B088A09890A2B
:10031900120354E4FDAB08AA09A90A8D827583006A
:0C032900120003FF600612034A0D80E979
:0103350022A5
:0A02BE00EF24FFFDEE34FFFC7F0A81
:0802C8008E0D8F0E8C0F8D10BE
:1002D0007F017E00E4FBEBC39510E50F6480F874AA
:0E02E0008098500AAC0DAD0E1200300B80E875
:0102EE0022ED
:0402EF008A0A8B0BE1
:1002F300120354AA0CEAFF7E00D394007480948006
:0F030300400D1202BEAC0AAD0B1203361A80E693
:0103120022C8
:040237008B828A83A9
:10023B00120354C3E58364809480400D7F2B12031B
:10024B004A85831685821780107F2D12034AC3E4DB
:10025B009582F517E49583F516AA15EAFF7E00D370
:10026B00940074809480400D1202BEAC16AD171230
:05027B0003361A80E6C5
:01028000225B
:0401EC008A1A8B1BC5
:1001F000120354AA1CEAD39400748094804037EA16
:1002000024FFFDE434FFFC7F107E001202C8AC1A0C
:10021000AD1BCFCDCFCECCCE120042EF540FFEC3DC
:10022000940A74809480EE5004243080022437FFB6
:0602300012034A1A80BF10
:0102360022A5
:040281008A1F8B2025
:10028500120354AA21EAFF7E00D39400748094805F
:100295004026EF24FFFDEE34FFFC7F021202C8ACBE
:1002A5001FAD20CFCDCFCECCCE120042EF540124CE
:0802B50030FF12034A1A80CD4C
:0102BD00221E
:02012300AD0726
:10012500E4F508F509C2B6C2B5FBEBC394087480C3
:10013500948050237E007480A803088006CEA2E731
:1001450013CE13D8F8FFEDF582EF558224FF92B454
:10015500D2B6C2B60B80D3E4FBEBC3941074809483
:1001650080501ED2B6C2B630B7147E80E4A803080C
:100175008005CEC313CE13D8F94209EE42080B8091
:08018500D8D2B5E508FF7E00A9
:01018D00224F
:0300000002009764
:0C009700787FE4F6D8FD7581230200DEBE
:10000300BB010CE58229F582E5833AF583E02250B2
:1000130006E92582F8E622BBFE06E92582F8E222FC
:0D002300E58229F582E5833AF583E4932216
:10003000EF8DF0A4A8F0CF8CF0A428CE8DF0A42EE4
:02004000FE229E
:10004200BC000BBE0029EF8DF084FFADF022E4CCA2
:10005200F875F008EF2FFFEE33FEEC33FCEE9DEC6B
:10006200984005FCEE9DFE0FD5F0E9E4CEFD22EDB1
:10007200F8F5F0EE8420D21CFEADF075F008EF2FFB
:10008200FFED33FD4007985006D5F0F222C398FDEC
:050092000FD5F0EA2289
:1000A30002018EE493A3F8E493A34003F68001F2E4
:1000B30008DFF48029E493A3F85407240CC8C3335E
:1000C300C4540F4420C8834004F456800146F6DF2D
:1000D300E4800B01020408102040809003C8E47EF2
:1000E300019360BCA3FF543F30E509541FFEE49322
:1000F300A360010ECF54C025E060A840B8E493A3E9
:10010300FAE493A3F8E493A3C8C582C8CAC583CA13
:10011300F0A3C8C582C8CAC583CADFE9DEE780BECB
:0103CC000030
:00000001FF
